:020000040800F2
:1000000068060020B9160008210300082303000831
:10001000270300082B0300082F030008000000003E
:100020000000000000000000000000003303000892
:1000300035030008000000003703000839030008FA
:10004000D3160008D3160008D3160008D3160008EC
:10005000D3160008D3160008D3160008D3160008DC
:10006000D3160008D3160008D3160008D3160008CC
:10007000D3160008D3160008D3160008D3160008BC
:10008000D3160008D3160008D3160008D3160008AC
:10009000D3160008D3160008D3160008D31600089C
:1000A000D3160008D3160008D3160008D31600088C
:1000B000D3160008D3160008D3160008D31600087C
:1000C000D3160008D3160008D3160008D31600086C
:1000D000D3160008D3160008D3160008D31600085C
:1000E000D3160008D3160008D3160008D31600084C
:1000F000D3160008D3160008D3160008D31600083C
:10010000D3160008D3160008D3160008D31600082B
:10011000D3160008D3160008D3160008D31600081B
:10012000D3160008D3160008D3160008D31600080B
:10013000D3160008D3160008D3160008D3160008FB
:10014000D3160008D3160008D3160008D3160008EB
:10015000D3160008D3160008D3160008D3160008DB
:10016000D3160008D3160008D3160008D3160008CB
:10017000D3160008D3160008D316000800000000AC
:10018000D3160008D316000800F002F800F03CF87F
:100190000AA090E8000C82448344AAF10107DA45E2
:1001A00001D100F031F8AFF2090EBAE80F0013F0F8
:1001B000010F18BFFB1A43F001031847081700008E
:1001C00028170000103A24BF78C878C1FAD852071F
:1001D00024BF30C830C144BF04680C6070470000C1
:1001E0000023002400250026103A28BF78C1FBD840
:1001F000520728BF30C148BF0B6070471FB501F0E0
:1002000048FB1FBD10B510BD01F009FB1146FFF7FB
:10021000F5FF00F060F801F027FB03B4FFF7F2FFF1
:1002200003BC01F02FFB000000BFFEE710B592B049
:1002300000BF002000902B48006840F08050294902
:1002400008600846006800F08050009000BF00BFC2
:1002500000BF002000902448006840F480402249FC
:1002600008600846006800F48040009000BF00BFAE
:10027000022006900120099010200A9000200C9086
:1002800006A800F0C8FC18B1812118A0FFF7CCFF28
:100290000F2001900020029003900490059000210F
:1002A00001A800F0BCFE18B18F2110A0FFF7BCFF21
:1002B00001F0CDF84FF47A71B0FBF1F4204600F074
:1002C000B8F9042000F092FA00221146501E00F006
:1002D00033F912B010BD00F04CF8FFF7A7FF00BFD4
:1002E000FEE7000040380240007000405254455C78
:1002F0004465766963655C53544D33324634303718
:10030000564754785C53544375626547656E657211
:10031000617465645C5372635C6D61696E2E630029
:10032000704700BFFEE700BFFEE700BFFEE700BF6B
:10033000FEE770477047704710B500F05AF800F0BC
:100340006EFA10BD08B50020009000BF08BD70B562
:10035000044601F07CF84FF47A71B0FBF1F52846C1
:1003600000F067F900222146501E00F0E5F8002059
:1003700070BD10B55948006840F4007057490860D6
:100380000846006840F4806008600846006840F451
:1003900080700860032000F0BDF80F20FFF7D7FF42
:1003A00001F05EF9002010BD08B50020009000BFEC
:1003B00008BD10B54FF0FF304949086000200860C3
:1003C000401E091D086000200860401E4449103985
:1003D000086000200860401E091D086000200860B9
:1003E000401E091D086000200860FFF7DDFF0020A7
:1003F00010BD3C480068401C3A49086070473948C5
:100400000068704731B50024FFF7F9FF044600BFCC
:10041000FFF7F5FF001B00998842F9D338BD4FF074
:10042000E020006920F002004FF0E02108617047F1
:100430004FF0E020006940F002004FF0E021086139
:1004400070472948704729480068000C70472748C2
:100450000068C0F30B0070472448406840F001007A
:100460002249486070472148406820F001001F4938
:10047000486070471D48406840F002001B494860D2
:1004800070471A48406820F00200184948607047D9
:100490001648406840F0040014494860704713480B
:1004A000406820F00400114948607047012090FA2C
:1004B000A0F1B1FA81F10E4A02EB8101C1F800040A
:1004C00070470020012191FAA1F1B1FA81F1084AA7
:1004D00002EB8101C1F8000470470000003C0240BB
:1004E000203802400000002000020401002004E047
:1004F0000000274210B5002804DB0A07130ECD4A7E
:10050000135406E00A07140ECB4A00F00F031B1F1A
:10051000D45410BD00BF00F00702C74B0C3B196854
:100520004FF6FF031940C54B0B4343EA0221C24B70
:100530000C3B196000BF70472DE9F05F80460D4607
:100540001646002700F06FF9074639462A4633461B
:1005500001F00700C0F1070ABAF1040F02D94FF009
:10056000040A01E0C0F1070AD14600F1040ABAF119
:10057000070F02D24FF0000A01E0A0F1030AD446AF
:100580004FF0010A0AFA09FAAAF1010A0AEA020A74
:100590000AFA0CFA4FF0010B0BFA0CFBABF1010B52
:1005A0000BEA030B4AEA0B0421464046FFF7A2FF81
:1005B000BDE8F09F01460846002809DB00F01F0354
:1005C00001229A4043099B0003F1E023C3F8002174
:1005D00000BF704710B501460846002807DB00F051
:1005E0001F0301229A40964B440943F8242000BF80
:1005F00010BD00BF00BF00BF00BF00BFBFF34F8FE3
:1006000000BF00BF00BF8C480C38006800F4E060F9
:100610008A490843001D88490C39086000BF00BFA3
:1006200000BFBFF34F8F00BF00BF00BF00BF00BFC0
:10063000FDE770B504462546681EB0F1807F01D302
:1006400001200FE0681E4FF0E02148610F214FF0BC
:10065000FF30FFF74FFF00204FF0E02188610720B7
:100660000861002070BD4178734A803211600178C2
:10067000F9B1121D41681160017B0907C27A41EA94
:100680000261827A41EAC241427B41EA8241827B35
:1006900041EA4241C27B41EA0241427A41EA0221F7
:1006A000027A41EA420102781143634A88321160BA
:1006B00005E00021604A84321160121D116070470C
:1006C00010B500F0B0F810BD2DE9F0430446204607
:1006D000002803DB574F3F5C3F0907E0564F00F00F
:1006E0000F0CACF1040C17F80C703F093D460E4698
:1006F00006F00700C0F10708B8F1040F02D94FF067
:10070000040801E0C0F10708C44600F10408B8F18C
:10071000070F02D24FF0000801E0A0F1030847469E
:1007200025FA07F84FF0010909FA0CF9A9F10109B6
:1007300008EA0908C2F800804FF0010808FA07F833
:10074000A8F1010808EA0508C3F8008000BFBDE869
:10075000F08310B501460846002808DB00F01F03AF
:1007600001229A40364B8033440943F8242000BFCD
:1007700010BD10B50146084600280EDB304A803215
:10078000430952F8232000F01F040123A3401A401C
:100790000AB1012202E0002200E00022104610BD52
:1007A00010B501460846002807DB00F01F030122B0
:1007B0009A40244B440943F8242000BF10BD10B5D3
:1007C0000146084600280EDB1E4A8032430952F8D3
:1007D000232000F01F040123A3401A400AB1012284
:1007E00002E0002200E00022104610BD042808D1DB
:1007F0004FF0E021096941F004014FF0E02211615E
:1008000007E04FF0E021096921F004014FF0E022F8
:100810001161704708B50020009000BF08BD10B5F9
:10082000FFF7F8FF10BD04480C380068C0F3022041
:100830007047000000E400E018ED00E00000FA0559
:1008400080E100E080E200E0F8B502460B460025BA
:10085000002400200021E1E0012606FA01F51E68CF
:1008600006EA0504AC4273D15E68022E02D05E68CF
:10087000122E13D1CF0802F1200656F827004E079A
:10088000F70E0F26BE40B0434F07FF0E1E69BE4055
:100890003043CF0802F1200646F8270010684F00C9
:1008A0000326BE40B0431E7906F003064F00BE404B
:1008B000304310605E68012E08D05E68022E05D0BD
:1008C0005E68112E02D05E68122E13D190684F0020
:1008D0000326BE40B0434F00DE68BE403043906008
:1008E000506801268E40B0431E79C6F300168E4034
:1008F00030435060D0684F000326BE40B0434F00E5
:100900009E68BE403043D0605E6806F08056B6F107
:10091000805FA8D100BF00260096B24E366846F42C
:100920008046B04F3E603E46366806F480460096EC
:1009300000BF00BFAC4E8F0856F827008E07370F58
:100940000F26BE40B043A94EB24202D1002629E094
:1009500063E0A74EB24201D1012623E0A54EB24288
:1009600001D102261EE0A44EB24201D1032619E0B5
:10097000A24EB24201D1042614E0A14EB24201D1EE
:1009800005260FE09F4EB24201D106260AE09E4E98
:10099000B24201D1072605E09C4EB24201D10826A1
:1009A00000E009268F073F0FBE4030438E4E8F0870
:1009B00046F82700964E3068A0435E6806F48036FD
:1009C000B6F5803F00D12043914E3060361D30682F
:1009D000A0435E6806F40036B6F5003F00D1204320
:1009E0008B4E361D3060361D3068A0435E6806F4BD
:1009F0008016B6F5801F00D12043854E0836306042
:100A0000361D3068A0435E6806F40016B6F5001F78
:100A100000D120437E4E0C363060491C1029FFF473
:100A20001BAFF8BDF0B50C460025002200230021C5
:100A300097E0012606FA01F504EA0502AA427DD1F3
:100A400006684FEA410C032707FA0CF7BE4306601D
:100A5000CF0800F1200656F827604F074FEAD76C01
:100A60000F2707FA0CF7BE434FEAD10C00F120071D
:100A700047F82C6086684FEA410C032707FA0CF709
:100A8000BE438660476801268E40B7434760C6680C
:100A90004FEA410C032707FA0CF7BE43C660524EDB
:100AA0008F0856F827308E07370F0F26BE40334089
:100AB0004E4EB04201D1002628E04D4EB04201D149
:100AC000012623E04B4EB04201D102261EE04A4EE1
:100AD000B04201D1032619E0484EB04201D10426AC
:100AE00014E0474EB04201D105260FE0454EB0421A
:100AF00001D106260AE0444EB04201D1072605E0A6
:100B0000424EB04201D1082600E009268F073F0F70
:100B1000BE409E4224D18E07370F0F2606FA07F3F8
:100B2000314E8F0856F827609E432F4F4FEA910CA5
:100B300047F82C60364E3668964300E010E0344F9C
:100B40003E603E1D366896433F1D3E603E1D366842
:100B500096433F1D3E603E1D366896433F1D3E60F6
:100B6000491C1029FFF465AFF0BD024613690B4024
:100B70000BB1012000E0002070470AB1816101E063
:100B80000B048361704742694A404261704708B56F
:100B900002464FF48030009000980843009000987F
:100BA000D061D1610098D061D0690090D06900F423
:100BB000803008B1002008BD0120FCE708B5002105
:100BC000009100BF08BD10B50446114814300068FC
:100BD000204028B10E48143004602046FFF7EEFF95
:100BE00010BD0000443802400838014000000240B7
:100BF0000004024000080240000C024000100240C5
:100C00000014024000180240001C02400020024074
:100C1000003C0140704738B504460025207800F0BC
:100C20000100002866D0F748006800F00C00042896
:100C30000DD0F448006800F00C00082813D1F148EA
:100C4000001F006800F48000B0F5800F0BD1ED4864
:100C500008380068C0F3404000284BD06068002886
:100C600048D1012038BD0020E649891F0870FFF7F0
:100C7000C6FB054608E0FFF7C2FB401B41F2883186
:100C8000884201D90320EDE7DE4808380068C0F348
:100C900040400028EFD12079DA49891F0870606848
:100CA000A0B1FFF7ACFB054608E0FFF7A8FB401B2F
:100CB00041F28831884201D90320D3E7D14808386E
:100CC0000068C0F340400028EFD013E0FFF797FB27
:100CD000054608E0FFF793FB401B41F2883188424C
:100CE00001D90320BEE7C74808380068C0F3404078
:100CF0000028EFD1207800F00200022869D1C14815
:100D0000006800F00C0058B1BE48006800F00C000C
:100D1000082821D1BB48001F006800F48000D8B922
:100D2000B84808380068C0F3400020B1E0680128E6
:100D300001D0012096E7B3480838006820F0F80099
:100D4000F82292FAA2F2B2FA82F2216991400843A3
:100D5000AC49083908603CE0E06828B30120AA49A2
:100D60000860FFF74CFB054606E0FFF748FB401B19
:100D7000642801D9032075E7A24808380068C0F349
:100D800040000028F1D09F480838006820F0F800A3
:100D9000F82292FAA2F2B2FA82F221699140084353
:100DA00098490839086014E0002097490860FFF767
:100DB00026FB054606E0FFF722FB401B642801D90D
:100DC00003204FE78F4808380068C0F34000002830
:100DD000F1D1207800F0080008282CD16069A8B172
:100DE00001208A490860FFF70AFB054606E0FFF785
:100DF00006FB401B642801D9032033E781486C308F
:100E00000068C0F340000028F1D014E000207F49C2
:100E10000860FFF7F4FA054606E0FFF7F0FA401B1A
:100E2000642801D903201DE776486C300068C0F3C0
:100E300040000028F1D1207800F0040004286FD190
:100E400000BF002000906F483830006840F08050AC
:100E50006C49383108600846006800F08050009006
:100E600000BF00BF6A48006840F4807068490860AD
:100E7000FFF7C5FA054606E0FFF7C1FA401B6428F4
:100E800001D90320EEE66248006800F48070002873
:100E9000F2D000205B4968310870FFF7B0FA0546D0
:100EA00008E0FFF7ACFA401B41F28831884201D9D3
:100EB0000320D7E6534868300068C0F3400000289C
:100EC000EFD1207A4F4968310870A068A0B1FFF7D0
:100ED00096FA054608E0FFF792FA401B41F2883186
:100EE000884201D90320BDE6464868300068C0F357
:100EF00040000028EFD013E0FFF781FA054608E034
:100F0000FFF77DFA401B41F28831884201D9032066
:100F1000A8E63C4868300068C0F340000028EFD1E4
:100F2000A069E8B33748006800F00C00082872D0C8
:100F3000A069022850D1002033490866FFF75FFA04
:100F4000054606E0FFF75BFA401B642801D9032041
:100F500088E62C4808380068C0F340600028F1D1CA
:100F6000D4E90701084347F6C07292FAA2F2B2FA36
:100F700082F2616A914008430122A16AC2EB5101E9
:100F80004FF4403292FAA2F2B2FA82F29140084350
:100F90004FF0706292FAA2F2B2FA82F2E16A00E0D5
:100FA0003BE0914008431749091F0860012016499A
:100FB0000866FFF724FA054606E0FFF720FA401B13
:100FC000642801D903204DE60E4808380068C0F3B4
:100FD00040600028F1D020E000200B490866FFF7B0
:100FE0000EFA054606E0FFF70AFA401B642801D90D
:100FF000032037E6034808380068C0F34060002843
:10100000F1D10AE00838024000004742800E474212
:1010100000700040FFE7012024E6002022E670B5C2
:1010200004460E460025FE48006800F00F00B0425E
:101030006FD2FB490E700846006800F00F00B04206
:1010400001D0012070BD207800F00200022807D1F5
:10105000F448006820F0F000A1680843F1490860F6
:10106000207800F0010000283ED06068012807D1F8
:10107000EC4808380068C0F34040B8B90120E1E707
:101080006068022802D06068032807D1E548083864
:101090000068C0F3406048B90120D3E7E148083850
:1010A0000068C0F3400008B90120CBE7DD480068C4
:1010B00020F0030061680843DA490860FFF79FF9F0
:1010C00005466068012810D108E0FFF798F9401B39
:1010D00041F28831884201D90320B3E7D148006842
:1010E00000F00C000428F0D1CDE06068022811D196
:1010F00008E0FFF784F9401B41F28831884201D9AA
:1011000003209FE7C748006800F00C000828F0D1D2
:10111000B9E024E06068032810D108E0FFF76FF918
:10112000401B41F28831884201D903208AE7BD483B
:10113000006800F00C000328F0D1A4E008E0FFF7FD
:101140005EF9401B41F28831884201D9032079E7DA
:10115000B448006800F00C000028F0D193E020783B
:1011600000F00200022807D1AE48006820F0F0002D
:10117000A1680843AB490860207800F0010000280E
:1011800077D06068012807D1A64808380068C0F306
:101190004040B8B9012055E76068022802D0606875
:1011A000032807D19F4808380068C0F3406048B959
:1011B000012047E79B4808380068C0F3400008B9A1
:1011C00001203FE79748006820F00300616808436A
:1011D00094490860FFF713F905466068012810D1AB
:1011E00008E0FFF70CF9401B41F28831884201D931
:1011F000032027E78B48006800F00C000428F0D19A
:1012000037E06068022810D108E0FFF7F8F8401BCB
:1012100041F28831884201D9032013E781480068F0
:1012200000F00C000828F0D123E06068032810D1FA
:1012300008E0FFF7E4F8401B41F28831884201D909
:101240000320FFE67748006800F00C000328F0D187
:101250000FE008E0FFF7D3F8401B41F288318842E5
:1012600001D90320EEE66F48006800F00C0000286A
:10127000F0D16B490E700846006800F00F00B042D4
:1012800001D00120DEE6207800F00400042807D118
:101290006448006820F4E050E16808436149086050
:1012A000207800F00800082808D15E48006820F483
:1012B0006040216940EAC1005A4908600F20FFF7E9
:1012C00046F80020BEE670B586B006460C461546C8
:1012D00046BB00BF0020009052482830006840F014
:1012E00001005049283108600846006800F00100FC
:1012F000009000BF00BF88150190022002900320DB
:10130000049000200390059001A94748FFF79CFA3C
:101310004448006820F0EC6044EA05010843414974
:10132000086027E000BF002000903E482830006899
:1013300040F004003B49283108600846006800F08E
:101340000400009000BF00BF4815019002200290E9
:101350000320049000200390059001A93348FFF773
:1013600073FA3048006820F0784044EAC501084329
:101370002C49086006B070BD01202D49C864704733
:1013800000202B49C864704770B50021002200235B
:101390000020244C246804F00C0424B1042C04D054
:1013A000082C50D103E023484FE023484DE01D4C6A
:1013B000241F246804F03F011A4C241F246804F4FD
:1013C000800484B11C4CB4FBF1F5164C241F246836
:1013D00047F6C076344096FAA6F6B6FA86F6F4409A
:1013E00005FB04F20FE0134CB4FBF1F50D4C241F88
:1013F000246847F6C076344096FAA6F6B6FA86F622
:10140000F44005FB04F2074C241F246804F4403424
:101410004FF4403595FAA5F5B5FA85F5EC400DE0A9
:10142000003C024008380240000002400008024030
:10143000000047420024F40000127A00641C63009C
:10144000B2FBF3F001E0814800BF00BF70BD10B5F2
:10145000FFF79AFF7E49096801F0F001F02292FA45
:10146000A2F2B2FA82F2D1407A4A515CC8407A497B
:1014700008600846006810BD10B5FFF7E8FF744922
:10148000096801F4E0514FF4E05292FAA2F2B2FA84
:1014900082F2D1406F4A515CC84010BD10B5FFF7D1
:1014A000D6FF6B49096801F460414FF4604292FA3B
:1014B000A2F2B2FA82F2D140664A515CC84010BD35
:1014C0000F21016062490839096801F48021B1F5F2
:1014D000802F02D1052141600CE05D49083909687F
:1014E00001F48031B1F5803F02D10121416001E07A
:1014F0000021416056490839096801F0010111B124
:101500000121C16001E00021C16051490839096829
:1015100001F0F801F82292FAA2F2B2FA82F2D14076
:1015200001614B496831096801F00401042902D1C5
:10153000052181600AE046496831096801F001012E
:1015400011B10121816001E00021816040496C31CD
:10155000096801F0010111B10121416101E000219F
:1015600041613B490839096801F08071B1F1807F20
:1015700002D10221816101E0012181613449091F09
:10158000096801F48002C2613149091F096801F04C
:101590003F0202622E49091F096847F6C0721140D6
:1015A00092FAA2F2B2FA82F2D14041622849091FAE
:1015B000096801F4403101F5803149004FF44032AF
:1015C00092FAA2F2B2FA82F2D14081622049091F56
:1015D000096801F070614FF0706292FAA2F2B2FAFB
:1015E00082F2D140C16270470F220260184A12682D
:1015F00002F003024260164A126802F0F0028260B2
:10160000134A126802F4E052C260114A126802F4EE
:101610006042D2080261114A126802F00F020A60A9
:10162000704708B50020009000BF08BD10B50848FD
:10163000001D006800F08000802805D1FFF7F1FF51
:1016400080200349891D087010BD00000024F400AB
:10165000083802409C18000804000020003C0240AA
:1016600010B50320FEF756FF002211466FF00B0065
:10167000FEF762FF002211466FF00A00FEF75CFFE2
:10168000002211466FF00900FEF756FF00221146B6
:10169000501FFEF751FF00221146101FFEF74CFFAE
:1016A00000221146901EFEF747FF00221146501EF1
:1016B000FEF742FF10BD0000094880470948004777
:1016C000FEE7FEE7FEE7FEE7FEE7FEE7FEE7FEE7F2
:1016D000FEE7FEE704480549054A064B704700004F
:1016E000F91600088901000868000020680600203B
:1016F00068020020680200203F48006840F4700043
:101700003D4908603D48006840F001003B490860E1
:1017100000203A49083108603848006838490840D4
:10172000364908603748091D0860081F006820F422
:101730008020091F0860002030490C3108604FF0FC
:1017400000602D4980390860704770B50020002284
:10175000022300240221294D08352D6805F00C00D4
:1017600020B1042806D0082834D107E0264D274EA2
:10177000356033E0264D254E35602FE01F4D2D1D81
:101780002D68C5F380541D4D2D1D2D6805F03F01BA
:1017900054B11F4DB5FBF1F5184E361D3668C6F332
:1017A000881605FB06F209E0174DB5FBF1F5134E5F
:1017B000361D3668C6F3881605FB06F20F4D2D1D43
:1017C0002D68C5F301456D1C6B00B2FBF3F50F4EA0
:1017D000356003E00C4D0D4E356000BF00BF074D76
:1017E00008352D68C5F303150A4E705D074D2D6849
:1017F000C540064E356070BD88ED00E000380240FF
:10180000FFFFF6FE103000240024F4000400002046
:1018100000127A00AC180008704770477047754690
:1018200000F02CF8AE4605006946534620F007004C
:10183000854618B020B5FFF74DFFBDE820404FF0BA
:1018400000064FF000074FF000084FF0000B21F0AA
:101850000701AC46ACE8C009ACE8C009ACE8C00977
:10186000ACE8C0098D46704710B50446AFF3008060
:101870002046BDE81040FEF7D0BC0000004870478D
:101880000800002001491820ABBEFEE72600020038
:1018900070474FF04070E1EE100A70470000000002
:1018A0000102030401020304060708090000000006
:1018B0000000000001020304060708090000000000
:1018C00001020304E41800080000002008000000E2
:1018D000C4010008EC1800080800002060060000A1
:0C18E000E0010008000000000024F400FB
:04000005080016B920
:00000001FF
